S01400004C656420466C6168736865722E73726563AE
S11300000C942A000C94C8010C94F1010C941A026B
S11300100C9447000C9447000C946C020C94470019
S11300200C9447000C9443020C9447000C94470032
S11300300C9447000C9495020C9447000C94BE0257
S11300400C9447000C9447000C9447000C94470010
S11300500C94470011241FBECFE5D8E0DEBFCDBF0E
S113006010E0A0E6B0E0E2EDF5E002C005900D92EC
S1130070A038B107D9F720E0A0E8B0E001C01D9294
S1130080AE38B207E1F70E9449000C94E7020C94E1
S113009000000E94F100C0E061E08C2F0E946C001F
S11300A02FEF81EE94E0215080409040E1F700C0B2
S11300B00000CF5FC83081F7C7E060E08C2F0E945A
S11300C06C002FEF81EE94E0215080409040E1F7E6
S11300D000C00000C150F1CF982F96959695969543
S11300E087706130E1F5913099F028F09230E9F0B1
S11300F0933041F108954BB321E030E0B90102C0DF
S1130100660F771F8A95E2F7CB01842B8BBB08958A
S113011048B321E030E0B90102C0660F771F8A9529
S1130120E2F7CB01842B88BB089545B321E030E08E
S1130130B90102C0660F771F8A95E2F7CB01842BC1
S113014085BB089542B321E030E0B90102C0660FD7
S1130150771F8A95E2F7CB01842B82BB0895611146
S11301603FC09130A1F028F09230F9F0933059F16A
S113017008954BB321E030E0B90102C0660F771F48
S11301808A95E2F7CB01809584238BBB089548B30D
S113019021E030E0B90102C0660F771F8A95E2F7CB
S11301A0CB018095842388BB089545B321E030E0DA
S11301B0B90102C0660F771F8A95E2F7CB018095DB
S11301C0842385BB089542B321E030E0B90102C025
S11301D0660F771F8A95E2F7CB018095842382BB53
S11301E00895E0E6F0E080E041E050E09191282FAE
S11301F0269526952695382F3770913009F480C0BE
S113020018F09230A9F1BFC0213089F028F02230D3
S1130210C9F0233011F1B7C09AB3BA0102C0660F16
S1130220771F3A95E2F79B01292B2ABBACC097B301
S1130230BA0102C0660F771F3A95E2F79B01292B9A
S113024027BBA1C094B3BA0102C0660F771F3A95C9
S1130250E2F79B01292B24BB96C091B3BA0102C0DB
S1130260660F771F3A95E2F79B01292B21BB8BC0C0
S11302702130B1F028F0223019F1233089F183C004
S11302809AB3BA0102C0660F771F3A95E2F79B0151
S1130290362F309593239ABB9BB3292B2BBB73C06A
S11302A097B3BA0102C0660F771F3A95E2F79B0134
S11302B0362F3095932397BB98B3292B28BB63C063
S11302C094B3BA0102C0660F771F3A95E2F79B0117
S11302D0362F3095932394BB95B3292B25BB53C05C
S11302E091B3BA0102C0660F771F3A95E2F79B01FA
S11302F0362F3095932391BB92B3292B22BB43C055
S11303002130A9F028F0223009F1233071F13BC0EB
S11303109AB3BA0102C0660F771F3A95E2F79B01C0
S1130320209592239ABB9BB329232BBB2CC097B354
S1130330BA0102C0660F771F3A95E2F79B01209538
S1130340922397BB98B3292328BB1DC094B3BA0149
S113035002C0660F771F3A95E2F79B01209592231E
S113036094BB95B3292325BB0EC091B3BA0102C037
S1130370660F771F3A95E2F79B012095922391BB74
S113038092B3292322BB8F5F803209F02FCF0895C7
S11303901F920F920FB60F9211242F933F934F93F6
S11303A05F936F937F938F939F93AF93BF93EF93D9
S11303B0FF93E0918400F0918500309709F009954E
S11303C0FF91EF91BF91AF919F918F917F916F9129
S11303D05F914F913F912F910F900FBE0F901F90FF
S11303E018951F920F920FB60F9211242F933F93DB
S11303F04F935F936F937F938F939F93AF93BF9329
S1130400EF93FF93E0918200F0918300309709F01D
S11304100995FF91EF91BF91AF919F918F917F913A
S11304206F915F914F913F912F910F900FBE0F905D
S11304301F9018951F920F920FB60F9211242F93AD
S11304403F934F935F936F937F938F939F93AF9358
S1130450BF93EF93FF93E0918000F0918100309778
S113046009F00995FF91EF91BF91AF919F918F9101
S11304707F916F915F914F913F912F910F900FBE9C
S11304800F901F9018951F920F920FB60F92112480
S11304902F933F934F935F936F937F938F939F9388
S11304A0AF93BF93EF93FF93E0918800F09189009D
S11304B0309709F00995FF91EF91BF91AF919F910A
S11304C08F917F916F915F914F913F912F910F90F9
S11304D00FBE0F901F9018951F920F920FB60F9298
S11304E011242F933F934F935F936F937F938F9335
S11304F09F93AF93BF93EF93FF93E0918600F091A6
S11305008700309709F00995FF91EF91BF91AF9162
S11305109F918F917F916F915F914F913F912F9117
S11305200F900FBE0F901F9018951F920F920FB649
S11305300F9211242F933F934F935F936F937F9365
S11305408F939F93AF93BF93EF93FF93E0918C00AE
S1130550F0918D00309709F00995FF91EF91BF91CB
S1130560AF919F918F917F916F915F914F913F9147
S11305702F910F900FBE0F901F9018951F920F92FE
S11305800FB60F9211242F933F934F935F936F9362
S11305907F938F939F93AF93BF93EF93FF93E091D8
S11305A08A00F0918B00309709F00995FF91EF9143
S11305B0BF91AF919F918F917F916F915F914F9177
S11305C03F912F910F900FBE0F901F901895F894A4
S10505D0FFCF57
S11305D2000000000000000000000000020202020D
S11305E20000000000000000010002000000010001
S9030000FC
